{
    "abi": [
        {
            "type": "function",
            "name": "getProduct",
            "inputs": [
                {
                    "name": "productId",
                    "type": "string",
                    "internalType": "string"
                }
            ],
            "outputs": [
                {
                    "name": "productHash",
                    "type": "string",
                    "internalType": "string"
                },
                {
                    "name": "artisan",
                    "type": "address",
                    "internalType": "address"
                },
                {
                    "name": "timestamp",
                    "type": "uint256",
                    "internalType": "uint256"
                },
                {
                    "name": "exists",
                    "type": "bool",
                    "internalType": "bool"
                }
            ],
            "stateMutability": "view"
        },
        {
            "type": "function",
            "name": "products",
            "inputs": [
                {
                    "name": "",
                    "type": "string",
                    "internalType": "string"
                }
            ],
            "outputs": [
                {
                    "name": "productHash",
                    "type": "string",
                    "internalType": "string"
                },
                {
                    "name": "artisan",
                    "type": "address",
                    "internalType": "address"
                },
                {
                    "name": "timestamp",
                    "type": "uint256",
                    "internalType": "uint256"
                },
                {
                    "name": "exists",
                    "type": "bool",
                    "internalType": "bool"
                }
            ],
            "stateMutability": "view"
        },
        {
            "type": "function",
            "name": "registerProduct",
            "inputs": [
                {
                    "name": "productId",
                    "type": "string",
                    "internalType": "string"
                },
                {
                    "name": "productHash",
                    "type": "string",
                    "internalType": "string"
                },
                {
                    "name": "artisan",
                    "type": "address",
                    "internalType": "address"
                }
            ],
            "outputs": [],
            "stateMutability": "nonpayable"
        },
        {
            "type": "event",
            "name": "ProductRegistered",
            "inputs": [
                {
                    "name": "productId",
                    "type": "string",
                    "indexed": true,
                    "internalType": "string"
                },
                {
                    "name": "productHash",
                    "type": "string",
                    "indexed": false,
                    "internalType": "string"
                },
                {
                    "name": "artisan",
                    "type": "address",
                    "indexed": true,
                    "internalType": "address"
                },
                {
                    "name": "timestamp",
                    "type": "uint256",
                    "indexed": false,
                    "internalType": "uint256"
                }
            ],
            "anonymous": false
        }
    ],
    "bytecode": {
        "object": "0x608060405234801561000f575f80fd5b50610c298061001d5f395ff3fe608060405234801561000f575f80fd5b506004361061003f575f3560e01c80630186a423146100435780635deef34c1461007657806368111cce14610092575b5f80fd5b61005d60048036038101906100589190610616565b6100c5565b60405161006d9493929190610748565b60405180910390f35b610090600480360381019061008b91906107bc565b6101b9565b005b6100ac60048036038101906100a79190610616565b61036e565b6040516100bc9493929190610748565b60405180910390f35b5f818051602081018201805184825260208301602085012081835280955050505050505f91509050805f0180546100fb90610871565b80601f016020809104026020016040519081016040528092919081815260200182805461012790610871565b80156101725780601f1061014957610100808354040283529160200191610172565b820191905f5260205f20905b81548152906001019060200180831161015557829003601f168201915b505050505090806001015f9054906101000a900473ffffffffffffffffffffffffffffffffffffffff1690806002015490806003015f9054906101000a900460ff16905084565b5f836040516101c891906108db565b90815260200160405180910390206003015f9054906101000a900460ff1615610226576040517f08c379a000000000000000000000000000000000000000000000000000000000815260040161021d9061093b565b60405180910390fd5b60405180608001604052808381526020018273ffffffffffffffffffffffffffffffffffffffff168152602001428152602001600115158152505f8460405161026f91906108db565b90815260200160405180910390205f820151815f0190816102909190610af6565b506020820151816001015f6101000a81548173ffffffffffffffffffffffffffffffffffffffff021916908373ffffffffffffffffffffffffffffffffffffffff160217905550604082015181600201556060820151816003015f6101000a81548160ff0219169083151502179055509050508073ffffffffffffffffffffffffffffffffffffffff168360405161032891906108db565b60405180910390207f0c0d491e345bc2978c00d63d2467e57a7b6d771cf759616a786b1d339d75f1b58442604051610361929190610bc5565b60405180910390a3505050565b60605f805f805f8660405161038391906108db565b90815260200160405180910390206040518060800160405290815f820180546103ab90610871565b80601f01602080910402602001604051908101604052809291908181526020018280546103d790610871565b80156104225780601f106103f957610100808354040283529160200191610422565b820191905f5260205f20905b81548152906001019060200180831161040557829003601f168201915b50505050508152602001600182015f9054906101000a900473ffffffffffffffffffffffffffffffffffffffff1673ffffffffffffffffffffffffffffffffffffffff1673ffffffffffffffffffffffffffffffffffffffff16815260200160028201548152602001600382015f9054906101000a900460ff1615151515815250509050805f01518160200151826040015183606001519450945094509450509193509193565b5f604051905090565b5f80fd5b5f80fd5b5f80fd5b5f80fd5b5f601f19601f8301169050919050565b7f4e487b71000000000000000000000000000000000000000000000000000000005f52604160045260245ffd5b610528826104e2565b810181811067ffffffffffffffff82111715610547576105466104f2565b5b80604052505050565b5f6105596104c9565b9050610565828261051f565b919050565b5f67ffffffffffffffff821115610584576105836104f2565b5b61058d826104e2565b9050602081019050919050565b828183375f83830152505050565b5f6105ba6105b58461056a565b610550565b9050828152602081018484840111156105d6576105d56104de565b5b6105e184828561059a565b509392505050565b5f82601f8301126105fd576105fc6104da565b5b813561060d8482602086016105a8565b91505092915050565b5f6020828403121561062b5761062a6104d2565b5b5f82013567ffffffffffffffff811115610648576106476104d6565b5b610654848285016105e9565b91505092915050565b5f81519050919050565b5f82825260208201905092915050565b5f5b83811015610694578082015181840152602081019050610679565b5f8484015250505050565b5f6106a98261065d565b6106b38185610667565b93506106c3818560208601610677565b6106cc816104e2565b840191505092915050565b5f73ffffffffffffffffffffffffffffffffffffffff82169050919050565b5f610700826106d7565b9050919050565b610710816106f6565b82525050565b5f819050919050565b61072881610716565b82525050565b5f8115159050919050565b6107428161072e565b82525050565b5f6080820190508181035f830152610760818761069f565b905061076f6020830186610707565b61077c604083018561071f565b6107896060830184610739565b95945050505050565b61079b816106f6565b81146107a5575f80fd5b50565b5f813590506107b681610792565b92915050565b5f805f606084860312156107d3576107d26104d2565b5b5f84013567ffffffffffffffff8111156107f0576107ef6104d6565b5b6107fc868287016105e9565b935050602084013567ffffffffffffffff81111561081d5761081c6104d6565b5b610829868287016105e9565b925050604061083a868287016107a8565b9150509250925092565b7f4e487b71000000000000000000000000000000000000000000000000000000005f52602260045260245ffd5b5f600282049050600182168061088857607f821691505b60208210810361089b5761089a610844565b5b50919050565b5f81905092915050565b5f6108b58261065d565b6108bf81856108a1565b93506108cf818560208601610677565b80840191505092915050565b5f6108e682846108ab565b915081905092915050565b7f50726f6475637420616c726561647920726567697374657265640000000000005f82015250565b5f610925601a83610667565b9150610930826108f1565b602082019050919050565b5f6020820190508181035f83015261095281610919565b9050919050565b5f819050815f5260205f209050919050565b5f6020601f8301049050919050565b5f82821b905092915050565b5f600883026109b57fffffffffffffffffffffffffffffffffffffffffffffffffffffffffffffffff8261097a565b6109bf868361097a565b95508019841693508086168417925050509392505050565b5f819050919050565b5f6109fa6109f56109f084610716565b6109d7565b610716565b9050919050565b5f819050919050565b610a13836109e0565b610a27610a1f82610a01565b848454610986565b825550505050565b5f90565b610a3b610a2f565b610a46818484610a0a565b505050565b5b81811015610a6957610a5e5f82610a33565b600181019050610a4c565b5050565b601f821115610aae57610a7f81610959565b610a888461096b565b81016020851015610a97578190505b610aab610aa38561096b565b830182610a4b565b50505b505050565b5f82821c905092915050565b5f610ace5f1984600802610ab3565b1980831691505092915050565b5f610ae68383610abf565b9150826002028217905092915050565b610aff8261065d565b67ffffffffffffffff811115610b1857610b176104f2565b5b610b228254610871565b610b2d828285610a6d565b5f60209050601f831160018114610b5e575f8415610b4c578287015190505b610b568582610adb565b865550610bbd565b601f198416610b6c86610959565b5f5b82811015610b9357848901518255600182019150602085019450602081019050610b6e565b86831015610bb05784890151610bac601f891682610abf565b8355505b6001600288020188555050505b505050505050565b5f6040820190508181035f830152610bdd818561069f565b9050610bec602083018461071f565b939250505056fea26469706673582212201f14ad08cf351ddd844682cd346c7f174a7bb4573c99228c22db99c0a7cd4bfd64736f6c63430008140033",
        "linkReferences": {}
    },
    "methodIdentifiers": {
        "getProduct(string)": "68111cce",
        "products(string)": "0186a423",
        "registerProduct(string,string,address)": "5deef34c"
    },
    "id": 21
}